{
  "contractName": "HeavenTicket",
  "abi": [
    {
      "inputs": [
        {
          "internalType": "string",
          "name": "_name",
          "type": "string"
        },
        {
          "internalType": "string",
          "name": "_symbol",
          "type": "string"
        },
        {
          "internalType": "uint8",
          "name": "_decimals",
          "type": "uint8"
        },
        {
          "internalType": "uint256",
          "name": "_initalSupply",
          "type": "uint256"
        },
        {
          "internalType": "uint256",
          "name": "_ticketPrice",
          "type": "uint256"
        }
      ],
      "payable": false,
      "stateMutability": "nonpayable",
      "type": "constructor"
    },
    {
      "anonymous": false,
      "inputs": [
        {
          "indexed": true,
          "internalType": "address",
          "name": "owner",
          "type": "address"
        },
        {
          "indexed": true,
          "internalType": "address",
          "name": "spender",
          "type": "address"
        },
        {
          "indexed": false,
          "internalType": "uint256",
          "name": "value",
          "type": "uint256"
        }
      ],
      "name": "Approval",
      "type": "event"
    },
    {
      "anonymous": false,
      "inputs": [
        {
          "indexed": false,
          "internalType": "address",
          "name": "guest",
          "type": "address"
        }
      ],
      "name": "GuestAdded",
      "type": "event"
    },
    {
      "anonymous": false,
      "inputs": [
        {
          "indexed": true,
          "internalType": "address",
          "name": "previousOwner",
          "type": "address"
        },
        {
          "indexed": true,
          "internalType": "address",
          "name": "newOwner",
          "type": "address"
        }
      ],
      "name": "OwnershipTransferred",
      "type": "event"
    },
    {
      "anonymous": false,
      "inputs": [
        {
          "indexed": false,
          "internalType": "string",
          "name": "errMsg",
          "type": "string"
        }
      ],
      "name": "RevertEvent",
      "type": "event"
    },
    {
      "anonymous": false,
      "inputs": [
        {
          "indexed": false,
          "internalType": "address",
          "name": "guest",
          "type": "address"
        }
      ],
      "name": "TicketBought",
      "type": "event"
    },
    {
      "anonymous": false,
      "inputs": [
        {
          "indexed": true,
          "internalType": "address",
          "name": "from",
          "type": "address"
        },
        {
          "indexed": true,
          "internalType": "address",
          "name": "to",
          "type": "address"
        },
        {
          "indexed": false,
          "internalType": "uint256",
          "name": "value",
          "type": "uint256"
        }
      ],
      "name": "Transfer",
      "type": "event"
    },
    {
      "payable": true,
      "stateMutability": "payable",
      "type": "fallback"
    },
    {
      "constant": true,
      "inputs": [
        {
          "internalType": "address",
          "name": "owner",
          "type": "address"
        },
        {
          "internalType": "address",
          "name": "spender",
          "type": "address"
        }
      ],
      "name": "allowance",
      "outputs": [
        {
          "internalType": "uint256",
          "name": "",
          "type": "uint256"
        }
      ],
      "payable": false,
      "stateMutability": "view",
      "type": "function"
    },
    {
      "constant": false,
      "inputs": [
        {
          "internalType": "address",
          "name": "spender",
          "type": "address"
        },
        {
          "internalType": "uint256",
          "name": "amount",
          "type": "uint256"
        }
      ],
      "name": "approve",
      "outputs": [
        {
          "internalType": "bool",
          "name": "",
          "type": "bool"
        }
      ],
      "payable": false,
      "stateMutability": "nonpayable",
      "type": "function"
    },
    {
      "constant": true,
      "inputs": [
        {
          "internalType": "address",
          "name": "account",
          "type": "address"
        }
      ],
      "name": "balanceOf",
      "outputs": [
        {
          "internalType": "uint256",
          "name": "",
          "type": "uint256"
        }
      ],
      "payable": false,
      "stateMutability": "view",
      "type": "function"
    },
    {
      "constant": true,
      "inputs": [],
      "name": "decimals",
      "outputs": [
        {
          "internalType": "uint8",
          "name": "",
          "type": "uint8"
        }
      ],
      "payable": false,
      "stateMutability": "view",
      "type": "function"
    },
    {
      "constant": false,
      "inputs": [
        {
          "internalType": "address",
          "name": "spender",
          "type": "address"
        },
        {
          "internalType": "uint256",
          "name": "subtractedValue",
          "type": "uint256"
        }
      ],
      "name": "decreaseAllowance",
      "outputs": [
        {
          "internalType": "bool",
          "name": "",
          "type": "bool"
        }
      ],
      "payable": false,
      "stateMutability": "nonpayable",
      "type": "function"
    },
    {
      "constant": true,
      "inputs": [
        {
          "internalType": "address",
          "name": "",
          "type": "address"
        }
      ],
      "name": "guestList",
      "outputs": [
        {
          "internalType": "address",
          "name": "guestAddress",
          "type": "address"
        },
        {
          "internalType": "uint256",
          "name": "guestId",
          "type": "uint256"
        }
      ],
      "payable": false,
      "stateMutability": "view",
      "type": "function"
    },
    {
      "constant": true,
      "inputs": [
        {
          "internalType": "uint256",
          "name": "",
          "type": "uint256"
        }
      ],
      "name": "guests",
      "outputs": [
        {
          "internalType": "address",
          "name": "",
          "type": "address"
        }
      ],
      "payable": false,
      "stateMutability": "view",
      "type": "function"
    },
    {
      "constant": true,
      "inputs": [
        {
          "internalType": "address",
          "name": "",
          "type": "address"
        }
      ],
      "name": "heavenList",
      "outputs": [
        {
          "internalType": "address",
          "name": "guestAddress",
          "type": "address"
        },
        {
          "internalType": "uint256",
          "name": "guestId",
          "type": "uint256"
        }
      ],
      "payable": false,
      "stateMutability": "view",
      "type": "function"
    },
    {
      "constant": false,
      "inputs": [
        {
          "internalType": "address",
          "name": "spender",
          "type": "address"
        },
        {
          "internalType": "uint256",
          "name": "addedValue",
          "type": "uint256"
        }
      ],
      "name": "increaseAllowance",
      "outputs": [
        {
          "internalType": "bool",
          "name": "",
          "type": "bool"
        }
      ],
      "payable": false,
      "stateMutability": "nonpayable",
      "type": "function"
    },
    {
      "constant": true,
      "inputs": [],
      "name": "isOwner",
      "outputs": [
        {
          "internalType": "bool",
          "name": "",
          "type": "bool"
        }
      ],
      "payable": false,
      "stateMutability": "view",
      "type": "function"
    },
    {
      "constant": true,
      "inputs": [],
      "name": "name",
      "outputs": [
        {
          "internalType": "string",
          "name": "",
          "type": "string"
        }
      ],
      "payable": false,
      "stateMutability": "view",
      "type": "function"
    },
    {
      "constant": true,
      "inputs": [],
      "name": "owner",
      "outputs": [
        {
          "internalType": "address",
          "name": "",
          "type": "address"
        }
      ],
      "payable": false,
      "stateMutability": "view",
      "type": "function"
    },
    {
      "constant": true,
      "inputs": [
        {
          "internalType": "uint256",
          "name": "",
          "type": "uint256"
        }
      ],
      "name": "patreons",
      "outputs": [
        {
          "internalType": "address",
          "name": "",
          "type": "address"
        }
      ],
      "payable": false,
      "stateMutability": "view",
      "type": "function"
    },
    {
      "constant": false,
      "inputs": [],
      "name": "renounceOwnership",
      "outputs": [],
      "payable": false,
      "stateMutability": "nonpayable",
      "type": "function"
    },
    {
      "constant": true,
      "inputs": [],
      "name": "symbol",
      "outputs": [
        {
          "internalType": "string",
          "name": "",
          "type": "string"
        }
      ],
      "payable": false,
      "stateMutability": "view",
      "type": "function"
    },
    {
      "constant": true,
      "inputs": [],
      "name": "totalSupply",
      "outputs": [
        {
          "internalType": "uint256",
          "name": "",
          "type": "uint256"
        }
      ],
      "payable": false,
      "stateMutability": "view",
      "type": "function"
    },
    {
      "constant": false,
      "inputs": [
        {
          "internalType": "address",
          "name": "recipient",
          "type": "address"
        },
        {
          "internalType": "uint256",
          "name": "amount",
          "type": "uint256"
        }
      ],
      "name": "transfer",
      "outputs": [
        {
          "internalType": "bool",
          "name": "",
          "type": "bool"
        }
      ],
      "payable": false,
      "stateMutability": "nonpayable",
      "type": "function"
    },
    {
      "constant": false,
      "inputs": [
        {
          "internalType": "address",
          "name": "sender",
          "type": "address"
        },
        {
          "internalType": "address",
          "name": "recipient",
          "type": "address"
        },
        {
          "internalType": "uint256",
          "name": "amount",
          "type": "uint256"
        }
      ],
      "name": "transferFrom",
      "outputs": [
        {
          "internalType": "bool",
          "name": "",
          "type": "bool"
        }
      ],
      "payable": false,
      "stateMutability": "nonpayable",
      "type": "function"
    },
    {
      "constant": false,
      "inputs": [
        {
          "internalType": "address",
          "name": "newOwner",
          "type": "address"
        }
      ],
      "name": "transferOwnership",
      "outputs": [],
      "payable": false,
      "stateMutability": "nonpayable",
      "type": "function"
    },
    {
      "constant": false,
      "inputs": [],
      "name": "buyTicket",
      "outputs": [],
      "payable": true,
      "stateMutability": "payable",
      "type": "function"
    },
    {
      "constant": true,
      "inputs": [],
      "name": "getTicketPrice",
      "outputs": [
        {
          "internalType": "uint256",
          "name": "",
          "type": "uint256"
        }
      ],
      "payable": false,
      "stateMutability": "view",
      "type": "function"
    },
    {
      "constant": false,
      "inputs": [
        {
          "internalType": "address",
          "name": "_senderAddress",
          "type": "address"
        }
      ],
      "name": "enterHeaven",
      "outputs": [
        {
          "internalType": "bool",
          "name": "",
          "type": "bool"
        }
      ],
      "payable": true,
      "stateMutability": "payable",
      "type": "function"
    },
    {
      "constant": false,
      "inputs": [
        {
          "internalType": "address",
          "name": "_senderAddress",
          "type": "address"
        }
      ],
      "name": "leaveHeaven",
      "outputs": [
        {
          "internalType": "bool",
          "name": "",
          "type": "bool"
        }
      ],
      "payable": true,
      "stateMutability": "payable",
      "type": "function"
    },
    {
      "constant": true,
      "inputs": [
        {
          "internalType": "address",
          "name": "_guestAddress",
          "type": "address"
        }
      ],
      "name": "isGuestOnList",
      "outputs": [
        {
          "internalType": "bool",
          "name": "isFoSho",
          "type": "bool"
        }
      ],
      "payable": false,
      "stateMutability": "view",
      "type": "function"
    },
    {
      "constant": true,
      "inputs": [],
      "name": "getGuestCount",
      "outputs": [
        {
          "internalType": "uint256",
          "name": "",
          "type": "uint256"
        }
      ],
      "payable": false,
      "stateMutability": "view",
      "type": "function"
    },
    {
      "constant": true,
      "inputs": [
        {
          "internalType": "address",
          "name": "_guestAddress",
          "type": "address"
        }
      ],
      "name": "isPateron",
      "outputs": [
        {
          "internalType": "bool",
          "name": "isFoSho",
          "type": "bool"
        }
      ],
      "payable": false,
      "stateMutability": "view",
      "type": "function"
    },
    {
      "constant": true,
      "inputs": [],
      "name": "getPateronCount",
      "outputs": [
        {
          "internalType": "uint256",
          "name": "",
          "type": "uint256"
        }
      ],
      "payable": false,
      "stateMutability": "view",
      "type": "function"
    },
    {
      "constant": false,
      "inputs": [],
      "name": "kill",
      "outputs": [],
      "payable": false,
      "stateMutability": "nonpayable",
      "type": "function"
    }
  ],
  "bytecode": "0x60806040523480156200001157600080fd5b506040516200322538038062003225833981810160405260a08110156200003757600080fd5b81019080805160405193929190846401000000008211156200005857600080fd5b838201915060208201858111156200006f57600080fd5b82518660018202830111640100000000821117156200008d57600080fd5b8083526020830192505050908051906020019080838360005b83811015620000c3578082015181840152602081019050620000a6565b50505050905090810190601f168015620000f15780820380516001836020036101000a031916815260200191505b50604052602001805160405193929190846401000000008211156200011557600080fd5b838201915060208201858111156200012c57600080fd5b82518660018202830111640100000000821117156200014a57600080fd5b8083526020830192505050908051906020019080838360005b838110156200018057808201518184015260208101905062000163565b50505050905090810190601f168015620001ae5780820380516001836020036101000a031916815260200191505b50604052602001805190602001909291908051906020019092919080519060200190929190505050848484620001e9620003b460201b60201c565b6000806101000a81548173ffffffffffffffffffffffffffffffffffffffff021916908373ffffffffffffffffffffffffffffffffffffffff1602179055506000809054906101000a900473ffffffffffffffffffffffffffffffffffffffff1673ffffffffffffffffffffffffffffffffffffffff16600073ffffffffffffffffffffffffffffffffffffffff167f8be0079c531659141344cd1fd0a4f28419497f9722a3daafe3b4186f6b6457e060405160405180910390a38260049080519060200190620002bc9291906200069c565b508160059080519060200190620002d59291906200069c565b5080600660006101000a81548160ff021916908360ff160217905550505050600082116200036b576040517f08c379a00000000000000000000000000000000000000000000000000000000081526004018080602001828103825260198152602001807fefb4becda1e0b98fccafcda1e0b98fefb4bf204f27524c593f0000000000000081525060200191505060405180910390fd5b60006200038d8460ff1660120a84620003bc60201b620027f71790919060201c565b905081600781905550620003a833826200044760201b60201c565b5050505050506200074b565b600033905090565b600080831415620003d1576000905062000441565b6000828402905082848281620003e357fe5b04146200043c576040517f08c379a0000000000000000000000000000000000000000000000000000000008152600401808060200182810382526021815260200180620032046021913960400191505060405180910390fd5b809150505b92915050565b600073ffffffffffffffffffffffffffffffffffffffff168273ffffffffffffffffffffffffffffffffffffffff161415620004eb576040517f08c379a000000000000000000000000000000000000000000000000000000000815260040180806020018281038252601f8152602001807f45524332303a206d696e7420746f20746865207a65726f20616464726573730081525060200191505060405180910390fd5b62000507816003546200061360201b620023d61790919060201c565b6003819055506200056681600160008573ffffffffffffffffffffffffffffffffffffffff1673ffffffffffffffffffffffffffffffffffffffff168152602001908152602001600020546200061360201b620023d61790919060201c565b600160008473ffffffffffffffffffffffffffffffffffffffff1673ffffffffffffffffffffffffffffffffffffffff168152602001908152602001600020819055508173ffffffffffffffffffffffffffffffffffffffff16600073ffffffffffffffffffffffffffffffffffffffff167fddf252ad1be2c89b69c2b068fc378daa952ba7f163c4a11628f55a4df523b3ef836040518082815260200191505060405180910390a35050565b60008082840190508381101562000692576040517f08c379a000000000000000000000000000000000000000000000000000000000815260040180806020018281038252601b8152602001807f536166654d6174683a206164646974696f6e206f766572666c6f77000000000081525060200191505060405180910390fd5b8091505092915050565b828054600181600116156101000203166002900490600052602060002090601f016020900481019282601f10620006df57805160ff191683800117855562000710565b8280016001018555821562000710579182015b828111156200070f578251825591602001919060010190620006f2565b5b5090506200071f919062000723565b5090565b6200074891905b80821115620007445760008160009055506001016200072a565b5090565b90565b612aa9806200075b6000396000f3fe6080604052600436106101b75760003560e01c8063883d38f4116100ec578063a9059cbb1161008a578063e70d2c7311610064578063e70d2c7314610ae4578063edca914c14610b40578063f14cab0514610b4a578063f2fde38b14610b75576101b7565b8063a9059cbb14610990578063b87f78cb14610a03578063dd62ed3e14610a5f576101b7565b8063902dd267116100c6578063902dd267146107e757806395d89b411461086257806397203543146108f2578063a457c2d71461091d576101b7565b8063883d38f4146106f85780638da5cb5b146107615780638f32d59b146107b8576101b7565b806349e79bcb1161015957806370a082311161013357806370a08231146105b9578063715018a61461061e57806385163edd1461063557806387bb7ae0146106cd576101b7565b806349e79bcb1461043d5780634c31c056146104d557806367e922c614610550576101b7565b806323b872dd1161019557806323b872dd146102ef578063313ce5671461038257806339509351146103b357806341c0e1b514610426576101b7565b806306fdde03146101c1578063095ea7b31461025157806318160ddd146102c4575b6101bf610bc6565b005b3480156101cd57600080fd5b506101d6610e42565b6040518080602001828103825283818151815260200191508051906020019080838360005b838110156102165780820151818401526020810190506101fb565b50505050905090810190601f1680156102435780820380516001836020036101000a031916815260200191505b509250505060405180910390f35b34801561025d57600080fd5b506102aa6004803603604081101561027457600080fd5b81019080803573ffffffffffffffffffffffffffffffffffffffff16906020019092919080359060200190929190505050610ee4565b604051808215151515815260200191505060405180910390f35b3480156102d057600080fd5b506102d9610f02565b6040518082815260200191505060405180910390f35b3480156102fb57600080fd5b506103686004803603606081101561031257600080fd5b81019080803573ffffffffffffffffffffffffffffffffffffffff169060200190929190803573ffffffffffffffffffffffffffffffffffffffff16906020019092919080359060200190929190505050610f0c565b604051808215151515815260200191505060405180910390f35b34801561038e57600080fd5b50610397610fe5565b604051808260ff1660ff16815260200191505060405180910390f35b3480156103bf57600080fd5b5061040c600480360360408110156103d657600080fd5b81019080803573ffffffffffffffffffffffffffffffffffffffff16906020019092919080359060200190929190505050610ffc565b604051808215151515815260200191505060405180910390f35b34801561043257600080fd5b5061043b6110af565b005b34801561044957600080fd5b5061048c6004803603602081101561046057600080fd5b81019080803573ffffffffffffffffffffffffffffffffffffffff169060200190929190505050611125565b604051808373ffffffffffffffffffffffffffffffffffffffff1673ffffffffffffffffffffffffffffffffffffffff1681526020018281526020019250505060405180910390f35b3480156104e157600080fd5b5061050e600480360360208110156104f857600080fd5b8101908080359060200190929190505050611169565b604051808273ffffffffffffffffffffffffffffffffffffffff1673ffffffffffffffffffffffffffffffffffffffff16815260200191505060405180910390f35b34801561055c57600080fd5b5061059f6004803603602081101561057357600080fd5b81019080803573ffffffffffffffffffffffffffffffffffffffff1690602001909291905050506111a5565b604051808215151515815260200191505060405180910390f35b3480156105c557600080fd5b50610608600480360360208110156105dc57600080fd5b81019080803573ffffffffffffffffffffffffffffffffffffffff16906020019092919050505061126d565b6040518082815260200191505060405180910390f35b34801561062a57600080fd5b506106336112b6565b005b34801561064157600080fd5b506106846004803603602081101561065857600080fd5b81019080803573ffffffffffffffffffffffffffffffffffffffff1690602001909291905050506113ef565b604051808373ffffffffffffffffffffffffffffffffffffffff1673ffffffffffffffffffffffffffffffffffffffff1681526020018281526020019250505060405180910390f35b3480156106d957600080fd5b506106e2611433565b6040518082815260200191505060405180910390f35b34801561070457600080fd5b506107476004803603602081101561071b57600080fd5b81019080803573ffffffffffffffffffffffffffffffffffffffff16906020019092919050505061143d565b604051808215151515815260200191505060405180910390f35b34801561076d57600080fd5b50610776611505565b604051808273ffffffffffffffffffffffffffffffffffffffff1673ffffffffffffffffffffffffffffffffffffffff16815260200191505060405180910390f35b3480156107c457600080fd5b506107cd61152e565b604051808215151515815260200191505060405180910390f35b3480156107f357600080fd5b506108206004803603602081101561080a57600080fd5b810190808035906020019092919050505061158c565b604051808273ffffffffffffffffffffffffffffffffffffffff1673ffffffffffffffffffffffffffffffffffffffff16815260200191505060405180910390f35b34801561086e57600080fd5b506108776115c8565b6040518080602001828103825283818151815260200191508051906020019080838360005b838110156108b757808201518184015260208101905061089c565b50505050905090810190601f1680156108e45780820380516001836020036101000a031916815260200191505b509250505060405180910390f35b3480156108fe57600080fd5b5061090761166a565b6040518082815260200191505060405180910390f35b34801561092957600080fd5b506109766004803603604081101561094057600080fd5b81019080803573ffffffffffffffffffffffffffffffffffffffff16906020019092919080359060200190929190505050611677565b604051808215151515815260200191505060405180910390f35b34801561099c57600080fd5b506109e9600480360360408110156109b357600080fd5b81019080803573ffffffffffffffffffffffffffffffffffffffff16906020019092919080359060200190929190505050611744565b604051808215151515815260200191505060405180910390f35b610a4560048036036020811015610a1957600080fd5b81019080803573ffffffffffffffffffffffffffffffffffffffff169060200190929190505050611762565b604051808215151515815260200191505060405180910390f35b348015610a6b57600080fd5b50610ace60048036036040811015610a8257600080fd5b81019080803573ffffffffffffffffffffffffffffffffffffffff169060200190929190803573ffffffffffffffffffffffffffffffffffffffff1690602001909291905050506119c4565b6040518082815260200191505060405180910390f35b610b2660048036036020811015610afa57600080fd5b81019080803573ffffffffffffffffffffffffffffffffffffffff169060200190929190505050611a4b565b604051808215151515815260200191505060405180910390f35b610b48610bc6565b005b348015610b5657600080fd5b50610b5f611c0d565b6040518082815260200191505060405180910390f35b348015610b8157600080fd5b50610bc460048036036020811015610b9857600080fd5b81019080803573ffffffffffffffffffffffffffffffffffffffff169060200190929190505050611c1a565b005b6000610bd0611ca0565b9050610bda61152e565b15610c4d576040517f08c379a000000000000000000000000000000000000000000000000000000000815260040180806020018281038252601e8152602001807f73656e6465722063616e277420626520636f6e7472616374206f776e6572000081525060200191505060405180910390fd5b6007543414610ca7576040517f08c379a00000000000000000000000000000000000000000000000000000000081526004018080602001828103825260218152602001806129786021913960400191505060405180910390fd5b610cb08161143d565b15610d23576040517f08c379a000000000000000000000000000000000000000000000000000000000815260040180806020018281038252601e8152602001807f796f752063616e206f6e6c7920676f20746f2068656176656e206f6e6365000081525060200191505060405180910390fd5b600160088290806001815401808255809150509060018203906000526020600020016000909192909190916101000a81548173ffffffffffffffffffffffffffffffffffffffff021916908373ffffffffffffffffffffffffffffffffffffffff16021790555003600960008373ffffffffffffffffffffffffffffffffffffffff1673ffffffffffffffffffffffffffffffffffffffff16815260200190815260200160002060010181905550610ddc816001611ca8565b7f22949fb111628ecd7b4062e944109804b256656bc00fc690af62b9a6105154d381604051808273ffffffffffffffffffffffffffffffffffffffff1673ffffffffffffffffffffffffffffffffffffffff16815260200191505060405180910390a150565b606060048054600181600116156101000203166002900480601f016020809104026020016040519081016040528092919081815260200182805460018160011615610100020316600290048015610eda5780601f10610eaf57610100808354040283529160200191610eda565b820191906000526020600020905b815481529060010190602001808311610ebd57829003601f168201915b5050505050905090565b6000610ef8610ef1611ca0565b8484611e65565b6001905092915050565b6000600354905090565b6000610f1984848461205c565b610fda84610f25611ca0565b610fd58560405180606001604052806028815260200161299960289139600260008b73ffffffffffffffffffffffffffffffffffffffff1673ffffffffffffffffffffffffffffffffffffffff1681526020019081526020016000206000610f8b611ca0565b73ffffffffffffffffffffffffffffffffffffffff1673ffffffffffffffffffffffffffffffffffffffff168152602001908152602001600020546123169092919063ffffffff16565b611e65565b600190509392505050565b6000600660009054906101000a900460ff16905090565b60006110a5611009611ca0565b846110a0856002600061101a611ca0565b73ffffffffffffffffffffffffffffffffffffffff1673ffffffffffffffffffffffffffffffffffffffff16815260200190815260200160002060008973ffffffffffffffffffffffffffffffffffffffff1673ffffffffffffffffffffffffffffffffffffffff168152602001908152602001600020546123d690919063ffffffff16565b611e65565b6001905092915050565b6110b761152e565b61110c576040517f08c379a0000000000000000000000000000000000000000000000000000000008152600401808060200182810382526025815260200180612a2b6025913960400191505060405180910390fd5b3373ffffffffffffffffffffffffffffffffffffffff16ff5b60096020528060005260406000206000915090508060000160009054906101000a900473ffffffffffffffffffffffffffffffffffffffff16908060010154905082565b600a818154811061117657fe5b906000526020600020016000915054906101000a900473ffffffffffffffffffffffffffffffffffffffff1681565b600080600a8054905014156111bd5760009050611268565b8173ffffffffffffffffffffffffffffffffffffffff16600a600b60008573ffffffffffffffffffffffffffffffffffffffff1673ffffffffffffffffffffffffffffffffffffffff168152602001908152602001600020600101548154811061122357fe5b9060005260206000200160009054906101000a900473ffffffffffffffffffffffffffffffffffffffff1673ffffffffffffffffffffffffffffffffffffffff161490505b919050565b6000600160008373ffffffffffffffffffffffffffffffffffffffff1673ffffffffffffffffffffffffffffffffffffffff168152602001908152602001600020549050919050565b6112be61152e565b611330576040517f08c379a00000000000000000000000000000000000000000000000000000000081526004018080602001828103825260208152602001807f4f776e61626c653a2063616c6c6572206973206e6f7420746865206f776e657281525060200191505060405180910390fd5b600073ffffffffffffffffffffffffffffffffffffffff166000809054906101000a900473ffffffffffffffffffffffffffffffffffffffff1673ffffffffffffffffffffffffffffffffffffffff167f8be0079c531659141344cd1fd0a4f28419497f9722a3daafe3b4186f6b6457e060405160405180910390a360008060006101000a81548173ffffffffffffffffffffffffffffffffffffffff021916908373ffffffffffffffffffffffffffffffffffffffff160217905550565b600b6020528060005260406000206000915090508060000160009054906101000a900473ffffffffffffffffffffffffffffffffffffffff16908060010154905082565b6000600754905090565b60008060088054905014156114555760009050611500565b8173ffffffffffffffffffffffffffffffffffffffff166008600960008573ffffffffffffffffffffffffffffffffffffffff1673ffffffffffffffffffffffffffffffffffffffff16815260200190815260200160002060010154815481106114bb57fe5b9060005260206000200160009054906101000a900473ffffffffffffffffffffffffffffffffffffffff1673ffffffffffffffffffffffffffffffffffffffff161490505b919050565b60008060009054906101000a900473ffffffffffffffffffffffffffffffffffffffff16905090565b60008060009054906101000a900473ffffffffffffffffffffffffffffffffffffffff1673ffffffffffffffffffffffffffffffffffffffff16611570611ca0565b73ffffffffffffffffffffffffffffffffffffffff1614905090565b6008818154811061159957fe5b906000526020600020016000915054906101000a900473ffffffffffffffffffffffffffffffffffffffff1681565b606060058054600181600116156101000203166002900480601f0160208091040260200160405190810160405280929190818152602001828054600181600116156101000203166002900480156116605780601f1061163557610100808354040283529160200191611660565b820191906000526020600020905b81548152906001019060200180831161164357829003601f168201915b5050505050905090565b6000600880549050905090565b600061173a611684611ca0565b8461173585604051806060016040528060258152602001612a5060259139600260006116ae611ca0565b73ffffffffffffffffffffffffffffffffffffffff1673ffffffffffffffffffffffffffffffffffffffff16815260200190815260200160002060008a73ffffffffffffffffffffffffffffffffffffffff1673ffffffffffffffffffffffffffffffffffffffff168152602001908152602001600020546123169092919063ffffffff16565b611e65565b6001905092915050565b6000611758611751611ca0565b848461205c565b6001905092915050565b600061176d8261143d565b6117c2576040517f08c379a00000000000000000000000000000000000000000000000000000000081526004018080602001828103825260268152602001806128a16026913960400191505060405180910390fd5b6117cd82600161245e565b6000600960008473ffffffffffffffffffffffffffffffffffffffff1673ffffffffffffffffffffffffffffffffffffffff168152602001908152602001600020600101549050600060086001600880549050038154811061182b57fe5b9060005260206000200160009054906101000a900473ffffffffffffffffffffffffffffffffffffffff169050806008838154811061186657fe5b9060005260206000200160006101000a81548173ffffffffffffffffffffffffffffffffffffffff021916908373ffffffffffffffffffffffffffffffffffffffff16021790555081600960008373ffffffffffffffffffffffffffffffffffffffff1673ffffffffffffffffffffffffffffffffffffffff16815260200190815260200160002060010181905550600880548091906001900361190a91906127a6565b506001600a8590806001815401808255809150509060018203906000526020600020016000909192909190916101000a81548173ffffffffffffffffffffffffffffffffffffffff021916908373ffffffffffffffffffffffffffffffffffffffff16021790555003600b60008673ffffffffffffffffffffffffffffffffffffffff1673ffffffffffffffffffffffffffffffffffffffff16815260200190815260200160002060010181905550600192505050919050565b6000600260008473ffffffffffffffffffffffffffffffffffffffff1673ffffffffffffffffffffffffffffffffffffffff16815260200190815260200160002060008373ffffffffffffffffffffffffffffffffffffffff1673ffffffffffffffffffffffffffffffffffffffff16815260200190815260200160002054905092915050565b6000611a56826111a5565b611ac8576040517f08c379a00000000000000000000000000000000000000000000000000000000081526004018080602001828103825260198152602001807f63616e206f6e6c79206c6561766520696620796f757220696e0000000000000081525060200191505060405180910390fd5b6000600b60008473ffffffffffffffffffffffffffffffffffffffff1673ffffffffffffffffffffffffffffffffffffffff1681526020019081526020016000206001015490506000600a6001600a805490500381548110611b2657fe5b9060005260206000200160009054906101000a900473ffffffffffffffffffffffffffffffffffffffff16905080600a8381548110611b6157fe5b9060005260206000200160006101000a81548173ffffffffffffffffffffffffffffffffffffffff021916908373ffffffffffffffffffffffffffffffffffffffff16021790555081600b60008373ffffffffffffffffffffffffffffffffffffffff1673ffffffffffffffffffffffffffffffffffffffff16815260200190815260200160002060010181905550600a805480919060019003611c0591906127a6565b505050919050565b6000600a80549050905090565b611c2261152e565b611c94576040517f08c379a00000000000000000000000000000000000000000000000000000000081526004018080602001828103825260208152602001807f4f776e61626c653a2063616c6c6572206973206e6f7420746865206f776e657281525060200191505060405180910390fd5b611c9d81612618565b50565b600033905090565b600073ffffffffffffffffffffffffffffffffffffffff168273ffffffffffffffffffffffffffffffffffffffff161415611d4b576040517f08c379a000000000000000000000000000000000000000000000000000000000815260040180806020018281038252601f8152602001807f45524332303a206d696e7420746f20746865207a65726f20616464726573730081525060200191505060405180910390fd5b611d60816003546123d690919063ffffffff16565b600381905550611db881600160008573ffffffffffffffffffffffffffffffffffffffff1673ffffffffffffffffffffffffffffffffffffffff168152602001908152602001600020546123d690919063ffffffff16565b600160008473ffffffffffffffffffffffffffffffffffffffff1673ffffffffffffffffffffffffffffffffffffffff168152602001908152602001600020819055508173ffffffffffffffffffffffffffffffffffffffff16600073ffffffffffffffffffffffffffffffffffffffff167fddf252ad1be2c89b69c2b068fc378daa952ba7f163c4a11628f55a4df523b3ef836040518082815260200191505060405180910390a35050565b600073ffffffffffffffffffffffffffffffffffffffff168373ffffffffffffffffffffffffffffffffffffffff161415611eeb576040517f08c379a0000000000000000000000000000000000000000000000000000000008152600401808060200182810382526024815260200180612a076024913960400191505060405180910390fd5b600073ffffffffffffffffffffffffffffffffffffffff168273ffffffffffffffffffffffffffffffffffffffff161415611f71576040517f08c379a000000000000000000000000000000000000000000000000000000000815260040180806020018281038252602281526020018061290f6022913960400191505060405180910390fd5b80600260008573ffffffffffffffffffffffffffffffffffffffff1673ffffffffffffffffffffffffffffffffffffffff16815260200190815260200160002060008473ffffffffffffffffffffffffffffffffffffffff1673ffffffffffffffffffffffffffffffffffffffff168152602001908152602001600020819055508173ffffffffffffffffffffffffffffffffffffffff168373ffffffffffffffffffffffffffffffffffffffff167f8c5be1e5ebec7d5bd14f71427d1e84f3dd0314c0f7b2291e5b200ac8c7c3b925836040518082815260200191505060405180910390a3505050565b600073ffffffffffffffffffffffffffffffffffffffff168373ffffffffffffffffffffffffffffffffffffffff1614156120e2576040517f08c379a00000000000000000000000000000000000000000000000000000000081526004018080602001828103825260258152602001806129e26025913960400191505060405180910390fd5b600073ffffffffffffffffffffffffffffffffffffffff168273ffffffffffffffffffffffffffffffffffffffff161415612168576040517f08c379a000000000000000000000000000000000000000000000000000000000815260040180806020018281038252602381526020018061287e6023913960400191505060405180910390fd5b6121d48160405180606001604052806026815260200161293160269139600160008773ffffffffffffffffffffffffffffffffffffffff1673ffffffffffffffffffffffffffffffffffffffff168152602001908152602001600020546123169092919063ffffffff16565b600160008573ffffffffffffffffffffffffffffffffffffffff1673ffffffffffffffffffffffffffffffffffffffff1681526020019081526020016000208190555061226981600160008573ffffffffffffffffffffffffffffffffffffffff1673ffffffffffffffffffffffffffffffffffffffff168152602001908152602001600020546123d690919063ffffffff16565b600160008473ffffffffffffffffffffffffffffffffffffffff1673ffffffffffffffffffffffffffffffffffffffff168152602001908152602001600020819055508173ffffffffffffffffffffffffffffffffffffffff168373ffffffffffffffffffffffffffffffffffffffff167fddf252ad1be2c89b69c2b068fc378daa952ba7f163c4a11628f55a4df523b3ef836040518082815260200191505060405180910390a3505050565b60008383111582906123c3576040517f08c379a00000000000000000000000000000000000000000000000000000000081526004018080602001828103825283818151815260200191508051906020019080838360005b8381101561238857808201518184015260208101905061236d565b50505050905090810190601f1680156123b55780820380516001836020036101000a031916815260200191505b509250505060405180910390fd5b5060008385039050809150509392505050565b600080828401905083811015612454576040517f08c379a000000000000000000000000000000000000000000000000000000000815260040180806020018281038252601b8152602001807f536166654d6174683a206164646974696f6e206f766572666c6f77000000000081525060200191505060405180910390fd5b8091505092915050565b600073ffffffffffffffffffffffffffffffffffffffff168273ffffffffffffffffffffffffffffffffffffffff1614156124e4576040517f08c379a00000000000000000000000000000000000000000000000000000000081526004018080602001828103825260218152602001806129c16021913960400191505060405180910390fd5b612550816040518060600160405280602281526020016128c760229139600160008673ffffffffffffffffffffffffffffffffffffffff1673ffffffffffffffffffffffffffffffffffffffff168152602001908152602001600020546123169092919063ffffffff16565b600160008473ffffffffffffffffffffffffffffffffffffffff1673ffffffffffffffffffffffffffffffffffffffff168152602001908152602001600020819055506125a88160035461275c90919063ffffffff16565b600381905550600073ffffffffffffffffffffffffffffffffffffffff168273ffffffffffffffffffffffffffffffffffffffff167fddf252ad1be2c89b69c2b068fc378daa952ba7f163c4a11628f55a4df523b3ef836040518082815260200191505060405180910390a35050565b600073ffffffffffffffffffffffffffffffffffffffff168173ffffffffffffffffffffffffffffffffffffffff16141561269e576040517f08c379a00000000000000000000000000000000000000000000000000000000081526004018080602001828103825260268152602001806128e96026913960400191505060405180910390fd5b8073ffffffffffffffffffffffffffffffffffffffff166000809054906101000a900473ffffffffffffffffffffffffffffffffffffffff1673ffffffffffffffffffffffffffffffffffffffff167f8be0079c531659141344cd1fd0a4f28419497f9722a3daafe3b4186f6b6457e060405160405180910390a3806000806101000a81548173ffffffffffffffffffffffffffffffffffffffff021916908373ffffffffffffffffffffffffffffffffffffffff16021790555050565b600061279e83836040518060400160405280601e81526020017f536166654d6174683a207375627472616374696f6e206f766572666c6f770000815250612316565b905092915050565b8154818355818111156127cd578183600052602060002091820191016127cc91906127d2565b5b505050565b6127f491905b808211156127f05760008160009055506001016127d8565b5090565b90565b60008083141561280a5760009050612877565b600082840290508284828161281b57fe5b0414612872576040517f08c379a00000000000000000000000000000000000000000000000000000000081526004018080602001828103825260218152602001806129576021913960400191505060405180910390fd5b809150505b9291505056fe45524332303a207472616e7366657220746f20746865207a65726f206164647265737368656176656e7320707265747479206578636c75736976652c206275792061207469636b657445524332303a206275726e20616d6f756e7420657863656564732062616c616e63654f776e61626c653a206e6577206f776e657220697320746865207a65726f206164647265737345524332303a20617070726f766520746f20746865207a65726f206164647265737345524332303a207472616e7366657220616d6f756e7420657863656564732062616c616e6365536166654d6174683a206d756c7469706c69636174696f6e206f766572666c6f77796f75206e656564206d6f6e657920746f2067657420696e746f2068656176656e45524332303a207472616e7366657220616d6f756e74206578636565647320616c6c6f77616e636545524332303a206275726e2066726f6d20746865207a65726f206164647265737345524332303a207472616e736665722066726f6d20746865207a65726f206164647265737345524332303a20617070726f76652066726f6d20746865207a65726f20616464726573734f6e6c7920746865206f776e65722063616e206b696c6c207468697320636f6e747261637445524332303a2064656372656173656420616c6c6f77616e63652062656c6f77207a65726fa265627a7a72315820166c6a07af08c5c7349df399c33b51824ccd1e2f5f5344351f9715c42ad77e5564736f6c634300050c0032536166654d6174683a206d756c7469706c69636174696f6e206f766572666c6f77",
  "source": "pragma solidity ^0.5.11;\n\nimport \"../node_modules/openzeppelin-solidity/contracts/math/SafeMath.sol\";\nimport \"../node_modules/openzeppelin-solidity/contracts/ownership/Ownable.sol\";\nimport \"../node_modules/openzeppelin-solidity/contracts/token/ERC20/ERC20.sol\";\nimport \"../node_modules/openzeppelin-solidity/contracts/token/ERC20/ERC20Detailed.sol\";\n\ncontract HeavenTicket is Ownable, ERC20, ERC20Detailed\n{\n\n    // The using A for B; directive is active for the current scope which is limited to a contract\n    // AKA use the library here\n    using SafeMath for uint256;\n\n    // state int\n    uint256 ticketPrice;\n\n    // Define simple type of the users address\n    struct Guest {\n        address guestAddress;\n        uint guestId;\n    }\n\n    // array of guests that have paid for ticket\n    address[] public guests;\n\n    // could get away with a simple address[] in state like ^^ but then you\n    // would need to iterate every time to search the arr use mapping as look up table\n    // mapping (address => bool) public guestList;\n\n    mapping(address => Guest) public guestList;\n\n    address[] public patreons;\n    // array of guests that are currently in heaven\n    mapping (address => Guest) public heavenList;\n\n    // fired when guest buys ticket\n    event TicketBought(address guest);\n\n    // fired when guest is added to list\n    event GuestAdded(address guest);\n\n    // fired on revert\n    event RevertEvent(string errMsg);\n\n    // Pass ctor params for contract params @SEE migrations/2_deploy_contracts\n    constructor\n    (\n        string memory _name,\n        string memory _symbol,\n        uint8 _decimals,\n        uint256 _initalSupply,\n        uint256 _ticketPrice\n    )\n    ERC20Detailed(_name, _symbol, _decimals) // call ERC20Detailed ctor\n    public\n    {\n        // dont go further unless there is some tickets\n        require(_initalSupply > 0, \" O'RLY?\");\n\n        // calc total supply\n        uint256 totalSupply_ = _initalSupply.mul(18 ** uint256(_decimals));\n\n        // ticket price\n        ticketPrice = _ticketPrice;\n\n        // mint inital supply for contract owner\n        _mint(msg.sender, totalSupply_);\n    }\n\n    function () external payable {\n        buyTicket();\n    }\n\n    // allow sender to buy ticket if they pay enough, and haven't already bought\n    function buyTicket() public payable\n    {\n        address _senderAddress = _msgSender();\n        require(!isOwner(), \"sender can't be contract owner\"); // should still be same logic as bellow\n        // require(_senderAddress != address(0), \"sender can't be contract owner\"); most places say to do this to prevent 0 adddress interaction but it doesnt seem to throw ex\n        require(msg.value == ticketPrice, \"you need money to get into heaven\");\n        require(!isGuestOnList(_senderAddress), \"you can only go to heaven once\");\n\n        // add user to list\n        guestList[_senderAddress].guestId = guests.push(_senderAddress) - 1;\n\n        // mint 1 token for the sender\n        _mint(_senderAddress, 1);\n\n        emit TicketBought(_senderAddress);\n    }\n\n    function getTicketPrice() public view returns(uint256)\n    {\n        return ticketPrice;\n    }\n\n    /**\n     *  @dev User can enter heavenList, only if they have a ticket in the guest list\n     * User must be in guestList map\n     * User must be removed from guests arr\n     * user must burn their ticket to enter\n     * must account number of patreons in heaven\n     */\n    function enterHeaven(address _senderAddress) public payable returns(bool)\n    {\n        require(isGuestOnList(_senderAddress), \"heavens pretty exclusive, buy a ticket\");\n        _burn(_senderAddress, 1);\n\n        uint rowToDelete = guestList[_senderAddress].guestId;\n        address keyToMove = guests[guests.length-1];\n        guests[rowToDelete] = keyToMove;\n        guestList[keyToMove].guestId = rowToDelete;\n        guests.length--;\n\n        heavenList[_senderAddress].guestId = patreons.push(_senderAddress) - 1;\n\n        return true;\n    }\n\n    function leaveHeaven(address _senderAddress) public payable returns(bool)\n    {\n        require(isPateron(_senderAddress), \"can only leave if your in\");\n\n        uint rowToDelete = heavenList[_senderAddress].guestId;\n        address keyToMove = patreons[patreons.length-1];\n        patreons[rowToDelete] = keyToMove;\n        heavenList[keyToMove].guestId = rowToDelete;\n        patreons.length--;\n\n    }\n\n    // Is address in state array\n    function isGuestOnList(address _guestAddress) public view returns(bool isFoSho)\n    {\n        if(guests.length == 0)\n        {\n            return false;\n        }\n        return (guests[guestList[_guestAddress].guestId] == _guestAddress);\n    }\n\n    function getGuestCount() public view returns(uint256)\n    {\n        return guests.length;\n    }\n\n    function isPateron(address _guestAddress) public view returns(bool isFoSho)\n    {\n        if(patreons.length == 0)\n        {\n            return false;\n        }\n        return (patreons[heavenList[_guestAddress].guestId] == _guestAddress);\n    }\n\n    function getPateronCount() public view returns(uint256)\n    {\n        return patreons.length;\n    }\n\n    // provide a way of destorying the contract to only the owner\n    function kill() external {\n        require(isOwner(), \"Only the owner can kill this contract\");\n        selfdestruct(address(uint160(msg.sender)));\n    }\n}",
  "sourcePath": "/Users/nsh/Truffle/oneticket/contracts/HeavenTicket.sol",
  "compiler": {
    "name": "solc",
    "version": "0.5.12+commit.7709ece9.Emscripten.clang"
  },
  "schemaVersion": "3.0.19",
  "updatedAt": "2019-11-24T11:55:32.528Z",
  "networkType": "ethereum",
  "devdoc": {
    "methods": {
      "allowance(address,address)": {
        "details": "See {IERC20-allowance}."
      },
      "approve(address,uint256)": {
        "details": "See {IERC20-approve}.     * Requirements:     * - `spender` cannot be the zero address."
      },
      "balanceOf(address)": {
        "details": "See {IERC20-balanceOf}."
      },
      "decimals()": {
        "details": "Returns the number of decimals used to get its user representation. For example, if `decimals` equals `2`, a balance of `505` tokens should be displayed to a user as `5,05` (`505 / 10 ** 2`).     * Tokens usually opt for a value of 18, imitating the relationship between Ether and Wei.     * NOTE: This information is only used for _display_ purposes: it in no way affects any of the arithmetic of the contract, including {IERC20-balanceOf} and {IERC20-transfer}."
      },
      "decreaseAllowance(address,uint256)": {
        "details": "Atomically decreases the allowance granted to `spender` by the caller.     * This is an alternative to {approve} that can be used as a mitigation for problems described in {IERC20-approve}.     * Emits an {Approval} event indicating the updated allowance.     * Requirements:     * - `spender` cannot be the zero address. - `spender` must have allowance for the caller of at least `subtractedValue`."
      },
      "enterHeaven(address)": {
        "details": "User can enter heavenList, only if they have a ticket in the guest list User must be in guestList map User must be removed from guests arr user must burn their ticket to enter must account number of patreons in heaven"
      },
      "increaseAllowance(address,uint256)": {
        "details": "Atomically increases the allowance granted to `spender` by the caller.     * This is an alternative to {approve} that can be used as a mitigation for problems described in {IERC20-approve}.     * Emits an {Approval} event indicating the updated allowance.     * Requirements:     * - `spender` cannot be the zero address."
      },
      "isOwner()": {
        "details": "Returns true if the caller is the current owner."
      },
      "name()": {
        "details": "Returns the name of the token."
      },
      "owner()": {
        "details": "Returns the address of the current owner."
      },
      "renounceOwnership()": {
        "details": "Leaves the contract without owner. It will not be possible to call `onlyOwner` functions anymore. Can only be called by the current owner.     * NOTE: Renouncing ownership will leave the contract without an owner, thereby removing any functionality that is only available to the owner."
      },
      "symbol()": {
        "details": "Returns the symbol of the token, usually a shorter version of the name."
      },
      "totalSupply()": {
        "details": "See {IERC20-totalSupply}."
      },
      "transfer(address,uint256)": {
        "details": "See {IERC20-transfer}.     * Requirements:     * - `recipient` cannot be the zero address. - the caller must have a balance of at least `amount`."
      },
      "transferFrom(address,address,uint256)": {
        "details": "See {IERC20-transferFrom}.     * Emits an {Approval} event indicating the updated allowance. This is not required by the EIP. See the note at the beginning of {ERC20};     * Requirements: - `sender` and `recipient` cannot be the zero address. - `sender` must have a balance of at least `amount`. - the caller must have allowance for `sender`'s tokens of at least `amount`."
      },
      "transferOwnership(address)": {
        "details": "Transfers ownership of the contract to a new account (`newOwner`). Can only be called by the current owner."
      }
    }
  },
  "userdoc": {
    "methods": {}
  }
}